:0200000480007A
:1000000073700430735040309711001093818185D4
:1000100017010110130101FF97020000938242278C
:100020007390523073F051301705000013054509E5
:10003000970500009385C5086300B50217260000E8
:100040001306465863FAC5008322050023A0550015
:1000500011059105E3EAC5FE172500001305855635
:1000600097050010938505FA1386018163FAC50090
:100070008322050023A0550011059105E3EAC5FE82
:1000800013850181938581966377B5002320050050
:100090001105E36DB5FE452917150000130565EC44
:1000A000EF00506BEF00306FEF00500201458145CB
:0A00B000EF00D055EF00701301A01F
:1000BC00011122CE00102326A4FE9387019625471A
:1000CC0098C3FD573E85724405618280011122CE92
:1000DC0000102326A4FE2324B4FE0327C4FE854768
:1000EC006307F7000327C4FE89476318F7008327CB
:1000FC0084FE0967D8C3814731A0938701962547B1
:10010C0098C3FD573E85724405618280011122CE51
:10011C0000102326A4FE85473E857244056182802B
:10012C00011122CE00102326A4FE2324B4FE232288
:10013C00C4FE81473E85724405618280797106D682
:10014C0022D40018232EA4FC232CB4FC232AC4FC98
:10015C008327C4FD99C3FD5739A8832784FD232623
:10016C00F4FE373501107924AA873E878327C4FE15
:10017C002380E70085473E85B2502254456182803A
:10018C00011122CE00102326A4FE9707001093879E
:10019C00A7EC98438327C4FE3E97938781966360B0
:1001AC00F70297070010938727EB98438327C4FE29
:1001BC003E9797F700109387276463F4E700FD5789
:1001CC0005A897070010938727E998438327C4FE57
:1001DC003E9797070010938727E898C3970700105E
:1001EC00938787E798438327C4FEB307F040BA97F9
:1001FC003E85724405618280797106D622D400183E
:10020C00232EA4FC232CB4FC232AC4FC0325C4FDFC
:10021C00EF00107EAA8799E3FD57B1A8832784FDD0
:10022C002324F4FE232604FE3DA8032784FE832703
:10023C00C4FEBA9703C70700A9476316F700B54574
:10024C0037350110B522032784FE8327C4FEBA97E5
:10025C0083C70700BE8537350110992A8327C4FE52
:10026C0085072326F4FE0327C4FE832744FDE36E93
:10027C00F7FA832744FD3E85B250225445618280B3
:10028C005D7106C012C216C41AC61EC82ACA2ECC6C
:10029C0032CE36D03AD23ED442DC46DEF2C0F6C282
:1002AC00FAC4FEC6F322103416D6F322203416D824
:1002BC00F322003016DA732520348A850929B252CC
:1002CC0073901234C25273902234D2527390023013
:1002DC0082401242A2423243C2435245E245724628
:1002EC0082561257A2576258F258064E964E264F17
:1002FC00B64F616173002030011122CE001023260D
:10030C00A4FE2324B4FE8327C4FE93B7170093F7EF
:10031C00F70F99C3FD5719A88327C4FED84F83271D
:10032C0084FE5D8F8327C4FED8CF81473E857244FF
:10033C0005618280797122D60018232EA4FC232C0F
:10034C00B4FC8327C4FD93B7170093F7F70F99C339
:10035C00FD5799A897070010938747D09843832798
:10036C0084FDB357F702FD172326F4FE8327C4FD43
:10037C0013070008D8C78327C4FEA18313F7F70F10
:10038C008327C4FDD8C38327C4FE13F7F70F832735
:10039C00C4FD98C38327C4FD1307600C98C783273B
:1003AC00C4FD0D47D8C781473E85325445618280D4
:1003BC00011122CE00102326A4FEAE87A305F4FE65
:1003CC008327C4FE93B7170093F7F70F99C3FD5714
:1003DC0031A801008327C4FEDC4B93F70702FDDB39
:1003EC000347B4FE8327C4FE98C381473E857244FD
:1003FC0005618280797122D60018232EA4FC8327F4
:10040C00C4FD93B7170093F7F70F81C79307F00F4D
:10041C0005A001008327C4FDDC4B858BE5DF83271A
:10042C00C4FD9C432326F4FE8327C4FE93F7F70FE9
:10043C003E85325445618280411122C60008A16775
:10044C003E85324441018280397106DE22DC26DA97
:10045C0080002326A4FCCD372326A4FE37070002F8
:10046C00B167BA9703A787FF83A7C7FF2324E4FECE
:10047C0037070002B167BA9703A787FF83A7C7FFA7
:10048C002322E4FEF32700B0BE84A6872320F4FECB
:10049C00032744FE832784FEE30CF7FC3707000296
:1004AC00B167BA9703A787FF83A7C7FF832744FECB
:1004BC00B307F740232EF4FCF32700B0BE84268745
:1004CC00832704FEB307F740232CF4FC0327C4FD59
:1004DC008327C4FCE364F7FC032784FD8327C4FD56
:1004EC003357F7028327C4FE3307F702832684FDB4
:1004FC008327C4FDB3F6F6028327C4FEB386F60247
:10050C008327C4FDB3D7F602BA973E85F2506254E6
:10051C00D25421618280011106CE22CC00100545F7
:10052C002537130540060D372326A4FE8327C4FE6A
:10053C003E85F240624405618280411122C600086A
:10054C0097070010938787B137B7C4041307074088
:10055C0098C30100324441018280011106CE22CCA5
:10056C0000102326A4FE2324B4FE17250000130537
:10057C00E5E2EF0090398325C4FE17250000130532
:10058C0025E3EF005027F3271034BE808687BE8505
:10059C00172500001305C5E2EF00F025F3273034D2
:1005AC00BE808687BE8517250000130565E2EF0027
:1005BC00902401A0011106CE22CC00102326A4FE0B
:1005CC002324B4FE17250000130585E1EF00F0335A
:1005DC008325C4FE17250000130585DDEF00B0212F
:1005EC00F3271034BE808687BE85172500001305BF
:1005FC0025DDEF005020F3273034BE808687BE8582
:10060C00172500001305C5DCEF00F01E0100F240B9
:10061C00624405618280011122CE0010232604FE63
:10062C001DA017070000130787F397060010938689
:10063C0066A48327C4FE8A07B69798C38327C4FE93
:10064C0085072326F4FE0327C4FEA947E3DBE7FC5A
:10065C0001000100724405618280011122CE00105C
:10066C00232604FE1DA0170700001307E7F49706C6
:10067C0000109386E6A28327C4FE8A07B69798C318
:10068C008327C4FE85072326F4FE0327C4FEC14737
:10069C00E3DBE7FC232604FE0DA01707000013077D
:1006AC00A7F19386C1888327C4FE8A07B69798C39F
:1006BC008327C4FE85072326F4FE0327C4FEA54723
:1006CC00E3DDE7FC010001007244056182803971B1
:1006DC0006DE22DC26DA80002326A4FC2324B4FCCC
:1006EC008327C4FC63DE070C232604FE0327C4FC0B
:1006FC008567FD17F98F2324F4FE032784FEAD478D
:10070C00631BF708F32740F1BE84A6872322F4FE6F
:10071C00832744FE1397C700B707200C9107BA979D
:10072C002320F4FE832704FE9C432324F4FE03279A
:10073C0084FEC14763E4E7081707001013074796C8
:10074C00832784FE8A07BA979C432326F4FE8327CB
:10075C00C4FE81CB8327C4FE832584FC0325C4FC03
:10076C008297832784FE232EF4FCF32740F1BE846A
:10077C00A687232CF4FC832784FD1397C700B707A7
:10078C00200C9107BA97232AF4FC832744FD0327F6
:10079C00C4FD98C325A01387C188832784FE8A07CC
:1007AC00BA979C432326F4FE8327C4FE81CB832770
:1007BC00C4FE832584FC0325C4FC8297814739A0A1
:1007CC00832584FC0325C4FC0128AA873E85F250AE
:1007DC006254D25421618280797106D622D40018D9
:1007EC00232EA4FC232CB4FC0327C4FD8567FD1722
:1007FC00F98F2324F4FE032784FEA94763EEE70058
:10080C001707001013070787832784FE8A07BA97F8
:10081C009C432326F4FE39A097070000938727D426
:10082C002326F4FE8327C4FE81CB8327C4FE8325B5
:10083C0084FD0325C4FD829781473E85B250225426
:10084C0045618280011106CE22CC00109727000052
:10085C00938747BA2322F4FE97270000938747BA61
:10086C002324F4FE97270000938707BA2326F4FE6F
:10087C0017260000130686B9972500009385C5B985
:10088C0017250000130505BAEF00E0768327C4FE98
:10089C00BE8517250000130565BBEF00C07597F7E3
:1008AC00FF0F9387A77B9C43BE851725000013057C
:1008BC0025BBEF0040740100F24062440561828068
:1008CC00397106DE22DC26DA8000B1312A8797F7EF
:1008DC00FF0F9387A77898C3B7050300372501103E
:1008EC00213CF1679385072037350110A134993FDE
:1008FC001D33A533C5472326F4FE232404FE61A82B
:10090C00832784FE2322F4FEF32740F1BE84A687BE
:10091C002320F4FE832704FE13977700832744FEDD
:10092C0095838A073E97B727000CBA97232EF4FCC1
:10093C008327C4FD9C43232CF4FC832744FEFD8BAE
:10094C000547B317F70093C7F7FF3E87832784FD4E
:10095C00F98F232CF4FC8327C4FD032784FD98C353
:10096C000100832784FE232AF4FC232804FC83271C
:10097C0044FD13972700B707000CBA972326F4FC05
:10098C008327C4FC032704FD98C30100832784FE3E
:10099C0085072324F4FE0327C4FE832784FEE3E1AA
:1009AC00E7F6232404FCF32740F1BE84A687232218
:1009BC00F4FC832744FC1397C700B707200CBA97A5
:1009CC002320F4FC832704FC032784FC98C3010038
:1009DC0001000100F2506254D25421618280011155
:1009EC0022CE00102326A4FE0100724405618280F1
:1009FC00411122C60008010032444101828041119C
:100A0C0022C600080100324441018280011106CE49
:100A1C0022CC0010F3271030BE8086872324F4FEEE
:100A2C00A30704FE032784FEB70700C07D8FB7071A
:100A3C000040631FF7028347F4FE13871700A307D8
:100A4C00E4FE3E879387418BBA97130730032380CC
:100A5C00E7008347F4FE13871700A307E4FE3E87E5
:100A6C009387418BBA97130720032380E70055A87F
:100A7C00032784FEB70700C07D8FB7070080631F74
:100A8C00F7028347F4FE13871700A307E4FE3E87A3
:100A9C009387418BBA97130760032380E700834742
:100AAC00F4FE13871700A307E4FE3E879387418B60
:100ABC00BA97130740032380E700A5A0032784FE01
:100ACC00B70700C07D8FB70700C0631CF7048347CE
:100ADC00F4FE13871700A307E4FE3E879387418B30
:100AEC00BA97130710032380E7008347F4FE13879C
:100AFC001700A307E4FE3E879387418BBA97130731
:100B0C0020032380E7008347F4FE13871700A30715
:100B1C00E4FE3E879387418BBA97130780032380AB
:100B2C00E700832784FE93F7071099CF8347F4FEE1
:100B3C0013871700A307E4FE3E879387418BBA9770
:100B4C00130790042380E700032784FE8567F98F41
:100B5C0099CF8347F4FE13871700A307E4FE3E8763
:100B6C009387418BBA971307D0042380E700832720
:100B7C0084FE858B99CF8347F4FE13871700A30758
:100B8C00E4FE3E879387418BBA97130710042380AA
:100B9C00E700832784FE898B99CF8347F4FE138764
:100BAC001700A307E4FE3E879387418BBA97130780
:100BBC0020042380E700832784FE918B99CF834701
:100BCC00F4FE13871700A307E4FE3E879387418B3F
:100BDC00BA97130730042380E700832784FEC18B68
:100BEC0099CF8347F4FE13871700A307E4FE3E87D3
:100BFC009387418BBA97130750042380E700832710
:100C0C0084FE93F7070299CF8347F4FE13871700EE
:100C1C00A307E4FE3E879387418BBA9713076004C2
:100C2C002380E700832784FEA18B99CF8347F4FEB2
:100C3C0013871700A307E4FE3E879387418BBA976F
:100C4C00130740042380E700032784FEC167F98F54
:100C5C0099CF8347F4FE13871700A307E4FE3E8762
:100C6C009387418BBA97130710052380E7008327DE
:100C7C0084FE93F7070899CF8347F4FE1387170078
:100C8C00A307E4FE3E879387418BBA971307800432
:100C9C002380E700832784FE93F7072099CF8347AF
:100CAC00F4FE13871700A307E4FE3E879387418B5E
:100CBC00BA971307A0042380E700032784FE8567F7
:100CCC0093870780F98F99CF8347F4FE138717001A
:100CDC00A307E4FE3E879387418BBA971307C004A2
:100CEC002380E700032784FE8967F98F99CF834718
:100CFC00F4FE13871700A307E4FE3E879387418B0E
:100D0C00BA971307E0042380E700032784FEB70794
:100D1C000400F98F99CF8347F4FE13871700A307BC
:100D2C00E4FE3E879387418BBA97130730052380E7
:100D3C00E700032784FEA167F98F99CF8347F4FE60
:100D4C0013871700A307E4FE3E879387418BBA975E
:100D5C00130700052380E700032784FEB70708006C
:100D6C00F98F99CF8347F4FE13871700A307E4FE8E
:100D7C003E879387418BBA97130740052380E70082
:100D8C00032784FEB7071000F98F99CF8347F4FE31
:100D9C0013871700A307E4FE3E879387418BBA970E
:100DAC00130750052380E700032784FEB707800054
:100DBC00F98F99CF8347F4FE13871700A307E4FE3E
:100DCC003E879387418BBA97130780052380E700F2
:100DDC008347F4FE13871700A307E4FE3E8793872F
:100DEC00418BBA97238007009385418B1715000020
:100DFC001305856809240100F24062440561828074
:100E0C005D7186C6A2C48008F32700B8BE808687B1
:100E1C002326F4FCF32700B0BE8086872324F4FC41
:100E2C00F32700B8BE8086872322F4FC0327C4FC7A
:100E3C00832744FC6308F700F32700B0BE80868745
:100E4C002324F4FC832744FC3E8F814F931E0F0018
:100E5C00014E832784FC3E868146B367CE0023284F
:100E6C00F4FCB3E7DE00232AF4FC032704FD8327FC
:100E7C0044FDBA86F32720B8BE8086872320F4FC75
:100E8C00F32720B0BE808687232EF4FAF32720B8F0
:100E9C00BE808687232CF4FA032704FC832784FB6B
:100EAC006308F700F32720B0BE808687232EF4FA60
:100EBC00832784FB3E8381439318030001488327D7
:100ECC00C4FB3E858145B367A800232CF4FCB3E733
:100EDC00B800232EF4FC032784FD8327C4FDBA87B6
:100EEC00D58F732700B0BA800687D98F3E8515241D
:100EFC00AD2CAA872324F4FEF3271030BE808687FE
:100F0C002322F4FE832544FE171500001305C55754
:100F1C00DD20ED3C232604FE29A88325C4FE1715ED
:100F2C00000013056557C1288327C4FE85072326B7
:100F3C00F4FE0327C4FECD47E3D1E7FE81473E858F
:100F4C00B640264461618280AA85814601460145EE
:100F5C00ADA14111971700009387076622C417149F
:100F6C000000130464651D8C26C206C60984BE8469
:100F7C0011E42244B2409244410151B47D149317C0
:100F8C002400A6979C438297E5B741119717000060
:100F9C009387876222C4171400001304E4611D8C2C
:100FAC0026C24AC006C6098481443E8963978402DE
:100FBC0081349717000093872760171400001304DF
:100FCC00A45F1D8C098481443E89639F8400B240D8
:100FDC002244924402494101828093972400CA978B
:100FEC009C4385048297D9B793972400CA979C4356
:100FFC0085048297D9BF5D7122D406D62A842EDA55
:10100C0032DC36DEBAC0BEC2C2C4C6C603A58180FD
:10101C0011C51C4D81E72AC6BD2D32450C4554180F
:10102C00228636CEEF001036B25022546161828097
:10103C00011126CA4AC806CE22CC4EC652C4AA8476
:10104C002E8901C51C4D91E3B9259C4C804499E334
:10105C0026859125971700009387C748631CF402D7
:10106C00C0408357C400A18BB1C71C48A1C7FD5910
:10107C00294A1C4483450900FD17B1E91CC463DEF1
:10108C0007062286A9452685B522FD576308F50279
:10109C00294535A0971700009387C7466314F400C1
:1010AC008044C1B7971700009387C741E31BF4FA3C
:1010BC00C04445BFA2852685F52A55D97D55F240F9
:1010CC006244D2444249B249224A056182801CC41E
:1010DC00050963D70700184C63CBE700638945010A
:1010EC001C401387170018C02380B70059B72286FD
:1010FC0026850922E31F35F7D1B71C40138717004B
:10110C0018C029472380E70061B7AA8503A5818011
:10111C0005B7411126C283A481809C5C22C406C6FB
:10112C002A849DEB6145EF00E07CB737CDAB88DCC2
:10113C009387E7301CC1B7176DE6938747235CC1D3
:10114C00B7E705009387C7EE1CC5AD472316F5001E
:10115C000547814718C95CC99C5CB240924480CB5E
:10116C00224423AA070041018280411122C403A416
:10117C0081801C5C06C69DEB6145EF00A077B737FC
:10118C00CDAB08DC9387E7301CC1B7176DE69387AE
:10119C0047235CC1B7E705009387C7EE1CC5AD4775
:1011AC002316F5000547814718C95CC9105C3787C1
:1011BC00954CB7F75158144A484A1307D7F29387FE
:1011CC00D742B387F602B24022443305E5023E957E
:1011DC00B387E60233B7E6029386170014CA2A9740
:1011EC0033B5F6003A9548CA06050581410182805F
:1011FC006FE0DFF1011122CC26CA4AC806CE4EC6DA
:10120C00AA842E89328401C51C4D91E3692197175C
:10121C0000009387272D6319F406C0401C4C1CC496
:10122C008357C400A18BC9C31C48BDCF1C480840C0
:10123C009379F90F1379F90F1D8D5C486346F5000E
:10124C00A2852685252E2DE51C440505FD171CC4FD
:10125C001C401387170018C0238037015C48638932
:10126C00A7008357C400858B81CBA9476316F9006F
:10127C00A285268521260DEDF2406244D244B24966
:10128C004A8542490561828097170000938787271A
:10129C006314F400804459B7971700009387872292
:1012AC00E31EF4F6C0449DBFA285268521203DDDBA
:1012BC007D59D9B7411122C426C24AC006C683A49F
:1012CC0081802A892E8489C49C4C99E32685E12649
:1012DC0097170000938707216317F402C040831708
:1012EC00C4001397070193F687004183ADEA937608
:1012FC00070195EA25472320E90093E70704231605
:10130C00F4007D5571A8971700009387A71F6314ED
:10131C00F4008044E9B7971700009387A71AE310ED
:10132C00F4FCC0446DBF118B0DC74C5889C9930791
:10133C0044046384F5004A85B525232A04028357A7
:10134C00C4002322040093F7B7FD2316F4001C48B5
:10135C001CC08357C40093E787002316F4001C4875
:10136C0081EF8357C4001307002093F70728638588
:10137C00E700A2854A85CD218317C4001397070186
:10138C0093F6170041839DC2544823240400B306EE
:10139C00D04014CC1448014581E61377070831FF7F
:1013AC00B240224492440249410182809376270044
:1013BC00014691E2504810C4F1BFAA8813850181FF
:1013CC001C4191EF1387418D18C117F5FF7F130551
:1013DC00A5C2BA8709C51C412324F708BA87D8438C
:1013EC007D487D556346E804638D080203A8870891
:1013FC006300080413152700429510C1032308103D
:10140C0005463316E6003363C300232068102320FF
:10141C00D50889466397D80083264810558E232219
:10142C00C810930617000A07D4C3BA978CC7014596
:10143C00828083D7C500011122CC26CA06CE4AC8A9
:10144C004EC613F78700AA842E8465E7D8416347FC
:10145C00E000B8416344E0000145C1A058546DDF81
:10146C0003A904009396370123A0040063DE06064B
:10147C0068488357C400918B99C75C401D8D5C589C
:10148C0099C33C401D8D5C540C502A8681462685A0
:10149C008297FD570357C400631DF5009440F54730
:1014AC0063E4D708B70740208507B3D7D700858BEF
:1014BC00A5CF1C48232204001CC09317370163D806
:1014CC000700FD576314F5009C4091E368C84C5825
:1014DC0023A02401D1D1930744046384F50026850D
:1014EC00D121232A04028DBF0C5085460146268546
:1014FC000297FD57E31FF5F69C40A5DF7547638502
:10150C00E70059476395E70023A02401B1B783573F
:10151C00C40093E707042316F400F2406244D2445B
:10152C004249B24905618280136707042316E4001F
:10153C00EDB783A90501E38109F203A905008D8BA1
:10154C0023A0350133093941014791E3D84918C427
:10155C00E35420F11C540C50CA864E862685829783
:10156C00634AA0008357C4007D5593E707042316F4
:10157C00F40065B7AA993309A940D9BF9C49B9CFE2
:10158C00011122CC06CE2A8411C51C4D81E72EC632
:10159C001922B245971700009387C7F4639BF50097
:1015AC004C408397C50095C722856244F240056183
:1015BC0049B5971700009387E7F46394F5000C4442
:1015CC00CDB7971700009387E7EFE39CF5FC4C44ED
:1015DC00C9BFF240624401450561828001458280A9
:1015EC00411122C406C62A842316B5002317C50050
:1015FC0023200500232205002324050023220506B1
:10160C0023280500232A0500232C050021468145AB
:10161C001305C505E524971700009387E7825CD076
:10162C0097170000938747851CD497170000938762
:10163C0087895CD4971700009387478CB24000D001
:10164C001CD822444101828097050000938545F304
:10165C0091A2411126C2130680069384F5FFB38430
:10166C00C4024AC02E8922C406C693854407E12EC3
:10167C002A8419C92320050023222501310508C419
:10168C001386840681459D2CB240228522449244C7
:10169C000249410182801C4DADE3411122C406C6B2
:1016AC0097070000938787FA1CD52324050423266B
:1016BC0005042328050483A7C1802A846314F5003C
:1016CC0085471CCD22851D2848C02285052808C4C5
:1016DC0022852D2048C448400146914511370844C5
:1016EC000546A545F53D48440946C945D53D8547C0
:1016FC00B2401CCC2244410182808280411126C21E
:10170C0083A4C1809C4C4AC006C622C42A8999E392
:10171C0026855137938484048044DC40FD1763D6BE
:10172C0007009C40B1CF8440C5BF0317C40031E70C
:10173C00C1778507232204062320040023220400FA
:10174C00232404005CC423280400232A0400232C33
:10175C000400214681451305C4054D22232A0402A9
:10176C00232C04022324040423260404B2402285DF
:10177C00224492440249410182801304840679BFB9
:10178C0091454A85F93588C02A8451FDB1472320FB
:10179C00F900E9BF797122D44AD04ECE52CC5AC846
:1017AC005EC606D626D256CA2A892E8A130485040A
:1017BC008149054BFD5B0444832A4400FD1A63D028
:1017CC000A0200406DF8B250225492540259624AF7
:1017DC00D24A424BB24B4E85F2494561828083D747
:1017EC00C400637BFB008397E40063877701A685C5
:1017FC004A85029AB3E9A90093848406C1B759714A
:10180C00CAD02E898395E500A2D4A6D286D632847E
:10181C00B68463DC05008357C90023A0040093F74A
:10182C0007088DE39307004005A030001D27E34413
:10183C0005FE3247BD67F98F7977BA9793B71700D2
:10184C009CC0CDB793070004B6501CC026549654C8
:10185C00065901456561828083D7C500011122CCF0
:10186C0006CE26CA4AC8898B2E8489CF9307740466
:10187C001CC01CC885475CC8F2406244D244424933
:10188C0005618280740030002A89953FA245AA84A4
:10189C004A85552A01ED8317C40013F7072069FF09
:1018AC00F19B93E727002316F400C9B797070000B4
:1018BC009387C7D92324F9028357C40008C008C8EA
:1018CC0093E707082316F400A2475CC8B24789CFF8
:1018DC008315E4004A855D2501C98357C400F19B3B
:1018EC0093E717002316F4000355C400C98C231684
:1018FC00940059B7AA8503A58180B1A23D432A87DC
:10190C006373C3029377F700BDEFADE5937606FFE3
:10191C003D8ABA960CC34CC30CC74CC74107E36B4A
:10192C00D7FE11E28280B306C3408A0697020000FC
:10193C0096966780A6002307B700A306B700230678
:10194C00B700A305B7002305B700A304B700230411
:10195C00B700A303B7002303B700A302B700230209
:10196C00B700A301B7002301B700A300B700230001
:10197C00B700828093F5F50F93968500D58D9396DD
:10198C000501D58D61B793962700970200009696B6
:10199C008682E78086FA9680C1171D8F3E96E37487
:1019AC00C3F8A5B7C5C183A7C5FF011122CC06CECC
:1019BC001384C5FF63D307003E942AC63D251387C5
:1019CC0041811C4332453A8681EB2322040000C33B
:1019DC006244F240056119AD637EF4001440330794
:1019EC00D4006396E7009843DC43369718C05CC07C
:1019FC0000C2F9BF3E87DC4399C3E37DF4FE144378
:101A0C003306D700631F86001040B29614C333060A
:101A1C00D700E39FC7FA9043DC43B29614C35CC370
:101A2C0045BF6375C400B1471CC15DB71040B30618
:101A3C00C4006396D7009443DC43B29614C05CC0D8
:101A4C0040C379B78280011126CA93843500F1987E
:101A5C004AC806CE22CC4EC6A104B1472A8963F1EE
:101A6C00F404B14463E0B4044A8541239387418173
:101A7C009843BE863A8431E0138481811C4089E707
:101A8C0081454A85612E08C0A6854A85412EFD599F
:101A9C0063183507B1472320F9004A85812B31A003
:101AAC00E3D204FCB1472320F9000145F240624423
:101ABC00D2444249B249056182801C40858F63CE75
:101ACC0007022D466376F6001CC03E9404C029A084
:101ADC005C40631287029CC24A85092B1305B40033
:101AEC009307440061993307F540E301F5FC3A9400
:101AFC00898F1CC065BF5CC3C5B722874040A5BF9A
:101B0C00130435007198E30385FCB305A4404A85A2
:101B1C003126E31D35FBBDBF1C46FD171CC663DA21
:101B2C000700184E63C5E700A9476394F5006FF0F2
:101B3C006FEC1C422E851387170018C22380B70048
:101B4C008280011122CC26CA4AC84EC652C406CE87
:101B5C002A89AE893284B304D6007D5A631494006A
:101B6C00014509A8834504004E864A85753705044E
:101B7C00E31645FFF2406244D2444249B249224A3C
:101B8C0005618280357122CD26CB4AC94EC706CF5E
:101B9C0052C556C35AC1DEDEE2DCE6DAAA89AE844F
:101BAC003289368401C51C4D91E3F534971700003A
:101BBC0093874793639BF40C83A4490083D7C40099
:101BCC00A18BF5C79C48E5C793070002A304F1025B
:101BDC009307000302D22305F10222C6930B500295
:101BEC00971A0000938A0A94054C294B4A84834720
:101BFC00040099C36390770FB30C2441630D240147
:101C0C00E6864A86A6854E852D3FFD576306F51E52
:101C1C009257E6973ED283470400638F071CFD570B
:101C2C001309140002C802CE3ECA02CCA309010457
:101C3C0082D48345090015465685592EC247130494
:101C4C00190059E913F7070109C713070002A30983
:101C5C00E10413F7870009C71307B002A309E104D5
:101C6C00834609001307A0026380E608F2474A8402
:101C7C00814625460347040093051400130707FD0E
:101C8C006379E60AB5CA3ECE85A8971700009387FC
:101C9C0067876395F40083A489000DB7971700003C
:101CAC0093874782E39CF4F083A4C90001BFA68507
:101CBC004E85EFF02FE009D97D55FA406A44DA449D
:101CCC004A49BA492A4A9A4A0A4BF65B665CD65C80
:101CDC000D618280050421BF330555413315AC00DD
:101CEC00C98F3EC82289B1B73247930647001843C3
:101CFC0036C6634907023ACE034704009307E00255
:101D0C00631FF704034714009307A002631BF70239
:101D1C00B2470904138747009C433AC663C10702C4
:101D2C003ECA35A83307E04093E727003ACE3EC8B9
:101D3C00E1B7B38767032E848546BA9725BFFD5755
:101D4C00C5B7050402CA81468147254603470400EE
:101D5C0093051400130707FD6376E606F1F283453D
:101D6C0004000D46170500001305457C952411CD84
:101D7C00970700009387877B1D8D93070004B3970B
:101D8C00A700424505045D8D2AC883450400194609
:101D9C00170500001305C579130914002304B102BB
:101DAC00052C3DC197E7FF7F9387072595E74247B1
:101DBC00B2471377071009CF91073EC69257D297B7
:101DCC003ED22DB5B38767032E848546BA97BDBF27
:101DDC009D07E19BA107D5B7780097060000938675
:101DEC0086D626860C084E8597000000E70000007A
:101DFC00FD572A8AE314F5FC83D7C40093F7070434
:101E0C00E39C07EA125555BD7800970600009386AF
:101E1C0086D326860C084E85CD24D9BF411122C409
:101E2C002A842E8523A0019606C6EFE06FB5FD57D8
:101E3C006316F50083A7019691C31CC0B2402244DF
:101E4C0041018280411122C42E848395E50006C68F
:101E5C00312B634905007C48AA977CC8B2402244C8
:101E6C00410182808357C4007D777D17F98F23163B
:101E7C00F400EDB783D7C500011122CC26CA4AC89D
:101E8C004EC606CE93F70710AA842E843289B689E3
:101E9C0091C78395E5008946014629228357C400E2
:101EAC007D777D17F98F8315E4002316F4006244C7
:101EBC00F240CE864A86B24942492685D244056113
:101ECC003DA8411122C42E848395E50006C6D9286D
:101EDC00FD570357C400631BF500FD77FD17F98F01
:101EEC002316F400B2402244410182808567D98FC9
:101EFC002316F40068C8FDB78395E5003DA0411199
:101F0C0022C42A842E85B285368623A0019606C665
:101F1C00EFE08FAEFD576316F50083A7019691C3D2
:101F2C001CC0B240224441018280411122C42A8447
:101F3C002E8523A0019606C6EFE08F97FD576316FA
:101F4C00F50083A7019691C31CC0B2402244410105
:101F5C008280411122C42A842E85B28523A0019649
:101F6C0006C6EFE0AF96FD576316F50083A7019602
:101F7C0091C31CC0B240224441018280411122C451
:101F8C002A842E8523A0019606C6EFE02F98FD57D4
:101F9C006316F50083A7019691C31CC0B24022447E
:101FAC0041018280411122C42A842E85B285368655
:101FBC0023A0019606C6EFE0AF96FD576316F50019
:101FCC0083A7019691C31CC0B24022444101828078
:101FDC0093F5F50F2A966314C5000145828083475B
:101FEC000500E38DB7FE0505FDB78280828079710F
:101FFC0052CC9C493A8A984522D426D24ECE56CA07
:10200C0006D64AD05AC85EC6AA892E84B284B68A2D
:10201C0063D3E700BA879CC00347340419C3850710
:10202C009CC01C4093F7070281C79C4089079CC049
:10203C000329040013796900631A0900130B940136
:10204C00FD5B5C449840998F634CF90483473404DE
:10205C00B336F0001C4093F70702A5EB13063404CB
:10206C00D6854E85029AFD576303F5041C40114634
:10207C009840998B544481446397C700B384E640DD
:10208C0063D3040081441C4418486354F700998FAF
:10209C00BE94014969047D5B63982405014509A838
:1020AC0085465A86D6854E85029A631E75017D55E6
:1020BC00B250225492540259F249624AD24A424BCB
:1020CC00B24B456182800509ADBF3307D4001306BE
:1020DC000003A301C7040347540493871600A29777
:1020EC008906A381E7049DBF85462286D6854E8549
:1020FC00029AE30E65FB050945B7797122D426D205
:10210C004AD04ECE06D652CC56CA5AC82E84B68960
:10211C009386350483C5850193078007AA84328989
:10212C0063ECB7009307200663EDB7006386051CCC
:10213C0093078005638BF512930A24042301B404DE
:10214C0015A89387D5F993F7F70F5546E366F6FE76
:10215C00170600001306C6408A07B2979C43B29735
:10216C0082871C43930A2404938647009C4314C320
:10217C002301F404854765A21C40084313F60708A5
:10218C00930545000DC21C410CC363D8070013070F
:10219C00D002B307F040A301E404170600001306B5
:1021AC00A6392947A9A013F607041C410CC371DEFC
:1021BC00C207C187D9BF10401C431378060813858A
:1021CC0047006305080008C39C4339A01376060436
:1021DC0008C37DDA83D707001307F0061706000043
:1021EC00130686356384E50E2947A30104044C408D
:1021FC000CC463C5050008406D9908C099E3B68A04
:10220C0099CDB68AB3F5E702FD1AB29583C50500E0
:10221C002380BA00BE85B3D7E702E3F5E5FEA147FC
:10222C00631EF7001C40858B91CB58401C4863C73C
:10223C00E70093070003A38FFAFEFD1AB3865641FD
:10224C0014C84E87CA867000A28526854D337D5AE8
:10225C00631B450D7D55B250225492540259F249DC
:10226C00624AD24A424B45618280A302B4041706EB
:10227C0000001306662C0C40084313F805081C419B
:10228C001105630D080208C313F7150001C793E588
:10229C0005020CC04147B1FB0C4093F5F5FD0CC099
:1022AC00A9B71C4093E707021CC093078007A30241
:1022BC00F404170600001306662975BF13F805040D
:1022CC0008C3E30308FCC207C1837DBF214731BFAC
:1022DC0010401C434C4813780608138547006306CE
:1022EC00080008C39C438CC301A808C313760604DA
:1022FC009C4375DA2390B70023280400B68A91B763
:10230C001C43504081459386470014C383AA0700A1
:10231C0056857D3901C53305554148C05C401CC804
:10232C00A301040439BF14485686CA8526858299B0
:10233C00E30245F31C40898B8DE7B2474844E35CCC
:10234C00F5F03E8509BF85465686CA852685829955
:10235C00E30265F1050A5C443247998FE345FAFEC6
:10236C00E9BF014A930A94017D5BF5B7411122C480
:10237C002A842E85B285368623A0019606C6EFD018
:10238C00FFDBFD576316F50083A7019691C31CC0B4
:08239C00B2402244410182809D
:1023A4005472617020696E20457863657074696F3A
:1023B4006E0D00004D43415553453A203078256C4D
:1023C400780D0A004D45504320203A203078256C82
:1023D400780D0A004D5456414C203A203078256C33
:1023E400780D0A005472617020696E20496E74651C
:1023F40072727570740D0000464C41534858495030
:1024040000000000464C415348000000494C4D0078
:1024140032333A31383A32340000000046656220E3
:10242400323220323032320048756D6D696E674247
:102434006972642053444B204275696C642054696A
:102444006D653A2025732C2025730D0A00000000C9
:10245400446F776E6C6F6164204D6F64653A20251C
:10246400730D0A00435055204672657175656E639D
:102474007920256C7520487A0D0A00004D49534196
:102484003A20525625730D0A000000004D4953416D
:102494003A203078256C780D0A00000025643A2033
:1024A40048656C6C6F20576F726C642046726F6D58
:1024B40020524953432D562050726F636573736FD6
:1024C40072210D0A0000000000000000000000005E
:1024D40000000000000000000000000000000000F8
:1024E40000000000000000000000000000000000E8
:1024F40000000000000000000000000000000000D8
:1025040000000000000000000000000000000000C7
:1025140000000000000000000000000000000000B7
:102524000000000000000000232D302B20000000DC
:10253400686C4C00656667454647000030313233AD
:1025440034353637383941424344454600000000AB
:102554003031323334353637383961626364656615
:102564000000000006FCFFFF1CFCFFFFDCFBFFFF7C
:10257400DCFBFFFFDCFBFFFFDCFBFFFF1CFCFFFFC2
:10258400DCFBFFFFDCFBFFFFDCFBFFFFDCFBFFFFF3
:1025940074FDFFFF5AFCFFFF46FDFFFFDCFBFFFF5E
:1025A400DCFBFFFFA4FDFFFFDCFBFFFF5AFCFFFF8A
:0C25B400DCFBFFFFDCFBFFFF4EFDFFFF28
:1025C00000000000EC2400800C250080CC2400805A
:1025D00000000000000000000000000000000000FB
:1025E00000000000000000000000000000000000EB
:1025F00000000000000000000000000000000000DB
:1026000000000000000000000000000000000000CA
:1026100000000000000000000000000000000000BA
:10262000C801009000B4C4040000009000000090B5
:040000058000000077
:00000001FF
